:020000040800F2
:1000000078A800209D0100083B2C0008B5220008BC
:10001000392C00083D0A00081933000800000000D0
:10002000000000000000000000000000C92C0008D3
:10003000810B0008000000003D2C0008A92E0008DC
:10004000B7010008B7010008B7010008B7010008B0
:10005000B7010008B7010008B7010008B7010008A0
:10006000870B00088D0B0008930B0008B7010008F0
:10007000B7010008B7010008B7010008B701000880
:10008000B7010008B7010008B7010008B701000870
:10009000B7010008B7010008B7010008B701000860
:1000A000B7010008B7010008B7010008B701000850
:1000B000B7010008B7010008B7010008B701000840
:1000C000B7010008B7010008B7010008B701000830
:1000D000B7010008B7010008B7010008B701000820
:1000E000B7010008B7010008B7010008B701000810
:1000F000B7010008B7010008B7010008B701000800
:10010000B7010008B7010008B7010008B7010008EF
:10011000B7010008B7010008B7010008B7010008DF
:10012000B7010008B7010008B7010008B7010008CF
:10013000B7010008B7010008B7010008B7010008BF
:10014000B7010008B7010008B7010008B7010008AF
:10015000B7010008B7010008B7010008B70100089F
:10016000B7010008B7010008B7010008B70100088F
:10017000B7010008B7010008B7010008000000003F
:10018000B7010008B7010008DFF80CD000F05EFBF3
:1001900000480047D94B000878A80020064880474F
:1001A00006480047FEE7FEE7FEE7FEE7FEE7FEE75C
:1001B000FEE7FEE7FEE7FEE7312F000889010008B1
:1001C0002DE9F05F0546002092469B46884606468C
:1001D000814640241BE0284641464746224600F01F
:1001E00038FA53465A46C01A914110D31146184660
:1001F000224600F01FFA2D1A67EB01084F462246EF
:100200000120002100F016FA17EB00094E41201ED4
:10021000A4F10104DFDC484631462A464346BDE8E6
:10022000F09F40EA01039B0703D009E008C9121FB1
:1002300008C0042AFAD203E011F8013B00F8013BA0
:10024000521EF9D27047D2B201E000F8012B491ECC
:10025000FBD270470022F6E710B513460A46044663
:100260001946FFF7F0FF204610BD421C10F8011B95
:100270000029FBD1801A70472DE9FE4F804681EAA4
:100280000300C00F0C46009021F0004123F0004510
:10029000B8EB0200A94105D24046214690461C46D3
:1002A0000B46024623F00040104347D0270DC7F30A
:1002B0000A00C3F30A510290401A019040286BDAF9
:1002C000C3F3130040F4801B0098924620B1002332
:1002D000D2EB030A63EB0B0B01985946C0F14002C5
:1002E000504600F0A7F906460D4650465946019A79
:1002F00000F0BFF910EB08006141002487EA1152B9
:1003000084EAE7731A4340D0009A62B3019A012A43
:100310004FEA075215DC001B61EB02014FF000426F
:1003200002EA0752CDE90042001C41F58011324635
:100330002B4600F0F6F903B0BDE8F08F40462146A9
:10034000F9E7001B61EB0201001C41F58013001866
:100350005B412018A2F5001747EB030140EAD57076
:10036000B6196D4111E06D084FEA360645EAC075D1
:100370004FEA0752001B61EB0201001C41F580119E
:1003800049084FEA30000019514132462B4603B06C
:10039000BDE8F04F00F0B6B90098012240000023FC
:1003A000D0EB020263EBE073009821464FEAE07461
:1003B000B8EB000061EB0401E9E783F000435BE781
:1003C00081F0004158E72DE9FE4F81EA030404F073
:1003D000004421F0004100944FF0000B23F0004353
:1003E00050EA01045ED052EA03045BD0C3F30A541E
:1003F000C1F30A552C44A4F2F3340194A0FB025437
:10040000C1F3130141F48011C3F3130343F48013C8
:1004100001FB024400FB034E840A970A44EA81541C
:1004200047EA8357A4FB076802958D0A05FB0785F9
:100430004FEA932C04FB0C542705029D4FEA065803
:1004400047EA1637B5EB08056EEB070C870E920EE0
:1004500047EA811742EA8312A7FB0201B6EB0B01C0
:1004600064EB00042B0D43EA0C335E1844EB1C5084
:10047000DA465146E7FB0201C5F313044FEA0B339A
:1004800043EA14534FEA0432019C43EA0603A4F101
:100490000C040294009CCDE900B400F042F903B0D2
:1004A000BDE8F08F00200146F9E72DE9F04D81EA23
:1004B000030404F0004B21F0004514464FF0000AFD
:1004C00023F0004150EA050220D054EA01021DD079
:1004D000C5F30A570246C5F31303C1F31300C1F372
:1004E0000A5640F4801543F48013A7EB0608101B4E
:1004F000D64608F2FD3873EB050002D308F1010877
:1005000001E092185B41B8F1000F03DA00200146C8
:10051000BDE8F08D00204FF48011064684460EE0C1
:10052000171B73EB050705D3121B63EB050306438B
:100530004CEA010C49084FEA300092185B4150EA3E
:100540000107EDD152EA030012D082EA040083EAE7
:100550000501084305D0101BAB4106D20122002340
:1005600006E000224FF0004302E06FF0010253105A
:100570001AEB06004CEB085110EB0A0041EB0B01A3
:10058000BDE8F04D00F0BEB80EB5C10F80EAE070D6
:100590000844CA07002140F233438DE80E000A46A2
:1005A0000B4600F0BEF803B000BD00F0004230F092
:1005B00000400AD0C10D01F56071C0F3160042EA97
:1005C0000151C2084007114370470020014670479F
:1005D00001F0004330B421F0004150EA010206D09E
:1005E0000A0DA2F56072C1F31301002A02DC30BCCF
:1005F00000207047440F44EAC104C100E01830BC39
:1006000000EBC25000F047B830B50B460146002061
:100610002022012409E021FA02F59D4205D303FAC4
:1006200002F5491B04FA02F52844151EA2F1010245
:10063000F1DC30BD202A04DB203A00FA02F1002070
:1006400070479140C2F1200320FA03F31943904010
:100650007047202A04DB203A21FA02F0002170477B
:1006600021FA02F3D040C2F120029140084319461A
:100670007047202A06DBCB17203A41FA02F043EA02
:10068000E07306E041FA02F3D040C2F1200291404B
:100690000843194670470029A8BF7047401C49000D
:1006A00008BF20F00100704710B4B0FA80FC00FAD7
:1006B0000CF050EA010404BF10BC704749B1CCF102
:1006C000200421FA04F411FA0CF118BF012121438E
:1006D0000843A3EB0C01CB1D4FEA00614FEA102049
:1006E00042BF002010BC704700EBC35010440029EB
:1006F000A4BF10BC7047401C490008BF20F0010097
:1007000010BC704710B5141E73F1000408DA401CC9
:1007100041F1000192185B411A4301D120F0010020
:1007200010BD2DE9F04D92469B4611B1B1FA81F210
:1007300002E0B0FA80F220329046FFF77BFF0446D9
:100740000F4640EA0A0041EA0B0153465A46084365
:1007500013D0114653EA010019D0C8F140025046A7
:10076000FFF777FF05460E46504659464246FFF7CB
:1007700061FF084305D0012004E020463946BDE86A
:10078000F08D0020054346EAE0762C4337430A9873
:100790006305E40AA0EB08000022FD0A44EA47547E
:1007A0000A3002D500200146E9E701051019694128
:1007B000DDE9084500196941BDE8F04DA2E770B5D3
:1007C00021F0004303430CD0C1F30A550024D5EBBC
:1007D000040564EB0403D617AD1AB34102DB002015
:1007E000014670BD201841EB025170BDC1F30A52A1
:1007F000C1F3130140F2FF3341F480119A4202DA4F
:1008000000200146704740F233439A42A2F233423D
:1008100002DC5242FFF71DBFFFF70CBF30B5041ECC
:1008200071F1000404DB4FF00044404264EB01012D
:10083000141E73F1000405DB1C464FF000435242C6
:1008400063EB0403994208BF904230BD064C074D4C
:1008500006E0E06840F0010394E807009847103490
:10086000AC42F6D3FFF794FC086400082864000843
:100870002DE9F04D00231A461B1A8A4103DB0020A4
:100880000146BDE8F08DC1F30A52C1F3130141F4F2
:1008900080154FF0000BD10702D100186D41521E98
:1008A0000027044640F2FF11384601EB620A3E463B
:1008B0008046024600204FF48011FFF7CAFEC2199D
:1008C0007141BB1846EB0100B4EB030C75EB000C57
:1008D00004D3E41A65EB000517460E46241908F107
:1008E00001006D4180463428E3DDF91946EB06002E
:1008F000091BA84103D24FF0FF32134601E000224A
:1009000013461BEB070046EB0A51BDE8F04DFFF71D
:10091000F9BE0000464910B54A6822F440324A60E8
:100920004A6843681A434A6001684A6822F4807240
:100930004A6001684A68036942EA03224A60016822
:100940004A6822F040724A6001684A6883681A4324
:100950004A6001688A6822F400628A6001688A68D5
:10096000C3681A438A60816A6FF07062D14201687D
:100970008A6822F070628A6001688A680CD0836A93
:100980001A438A6001688A6822F040528A600168CE
:100990008A68C36A1A4301E022F040528A60016803
:1009A0008A6822F002028A6001688A68037E42EA4D
:1009B00043028A6090F82010002901684A680FD02D
:1009C00042F400624A6001684A6822F460424A6068
:1009D00001684A68174C436A04EB43331A4301E049
:1009E00022F400624A600168CA6A22F47002CA6294
:1009F0000168CA6A838B104C04EB03531A43CA6222
:100A000001688A6822F400728A6001688A6890F836
:100A1000303042EA43228A6001688A6822F48062A8
:100A20008A6001688A68406942EA8020886010BD57
:100A30000023014000E0FFFF0000F0FFFEE70000A0
:100A400010B50821034801F02FFBFA204107C863C5
:100A500010BD000050A2002010B50021334801F065
:100A600023FB0421314801F01FFB08212F4801F02E
:100A70001BFB0C212D4801F017FB2D484CF2503484
:100A800044638463C463046428480021803001F017
:100A90000BFB26480421803001F006FB2348082187
:100AA000803001F001FB21480C21803001F0FCFA7C
:100AB00020480460001D0460001D0460001D0460E7
:100AC0001A480021C03001F0EFFA18480421C03064
:100AD00001F0EAFA15480821C03001F0E5FA1348A0
:100AE0000C21C03001F0E0FA13480460001D0460DE
:100AF000001D0460001D04600021104801F0D4FABC
:100B000004210E4801F0D0FA08210C4801F0CCFA7B
:100B10000C210A4801F0C8FA09480460001D04606D
:100B2000001D0460001D046010BD000010A2002024
:100B300000000140340400403408004010A30020AD
:100B4000340401400FB4182200B587B00CA96846E0
:100B5000FFF767FB0DF1200C9CE80F0000F004F894
:100B600007B05DF814FB00000FB4282210B502A9ED
:100B70000248FFF756FB10BC5DF814FB44A00020B0
:100B8000704700F037B9042000F07CB9082000F06D
:100B900079B9102000F076B978B50024009490F867
:100BA0003C20012A19D0012280F83C200A68072342
:100BB0000568092A13D9EE680A3A02EB420293400B
:100BC0009E43EE600B788A680A3B03EB43039A402E
:100BD0000368DD682A43DA6010E0022078BD2E69E0
:100BE00002EB420293409E432E610B788A6803EB2E
:100BF00043039A4003681D692A431A614A681F2308
:100C0000072A13D205686E6B521E02EB82029340D4
:100C10009E436E630B790A885B1E92B203EB8303DB
:100C20009A4003685D6B2A435A6327E005680D2AE2
:100C300012D22E6BD21F02EB820293409E432E6390
:100C40000B790A88DB1F92B203EB83039A40036897
:100C50001D6B2A431A6311E0EE6A0D3A02EB820221
:100C600093409E43EE620B790A880D3B92B203EBF0
:100C700083039A400368DD6A2A43DA62164B0568EB
:100C8000144A9D4206D10D68122D03D1556845F4D2
:100C90008005556005689D4218D10B68102B01D066
:100CA000112B13D1536843F40003536009681029D2
:100CB0000CD10A490A4A0968B1FBF2F101EB810142
:100CC000490000E0491E00910029FBD180F83C401A
:100CD000002078BD00230140002001403C0000209E
:100CE00040420F0070B504004FF0000503D0206CA7
:100CF000002610B107E0012070BD204600F01CF86E
:100D0000666484F83C60206CC00610D4206C20F42B
:100D1000885040F0020020642046FFF7FBFD666427
:100D2000206C20F0020040F00100206400E001256A
:100D300084F83C60284670BD70B586B00446142126
:100D40006846FFF787FA274A254E2568002325497C
:100D5000143A03242448B54211D10D6845F4807536
:100D60000D60096801F480710591116841F001017D
:100D70001160116801F001010591012113E01B4E82
:100D8000B54218D10D6845F400750D60096801F48D
:100D900000710591116841F001011160116801F0C5
:100DA000010105910221CDE900140293694600F08A
:100DB00075F806B070BD0E4EB542FAD10D6845F417
:100DC00080650D60096801F480610591116841F04A
:100DD00001011160116801F0010105910421E2E7B0
:100DE0000020014044380240000002400021014040
:100DF0000022014070B5044600F036F90546601C3B
:100E000002D004480078044400F02EF9401BA042B0
:100E1000FAD370BD3000002070B50125164C1028A3
:100E20000DD008280ED000BF042824D1C1011348DA
:100E300000F010F900281ED16069A8B117E001F098
:100E400065FF09E09FED0E0A002084ED000A84EDA5
:100E5000020A606101F0D8FF606900280BD165616A
:100E6000BDE87040FFF7ECBD6561FFF7E9FDBDE847
:100E70007040FFF7F1BD70BD0C0000200010024073
:100E800000000000044910B50A68024202D0086060
:100E9000FFF7C2FF10BD0000143C01402DE9F84FE0
:100EA00000224FF0010803254FF00F0E0B6808FADF
:100EB00002F42340A3426ED14E68012E05D0022ECB
:100EC00003D0112E01D0122E12D186684FEA420CA7
:100ED00005FA0CF7BE43CF6807FA0CF73743876073
:100EE0004668A6430C79C4F300149440344344602C
:100EF000C668570005FA07FC8C6826EA0C06BC4059
:100F00003443C4604C68022C01D0122C13D1D40895
:100F100000EB8404A346D4F8209054074FEAD46A27
:100F20000EFA0AF629EA06090E6906FA0AF646EAF0
:100F30000906CBF8206006680C7926EA0C0604F056
:100F40000304BC40344304604C68E40065D5364C6F
:100F5000266846F480462660246822F0030604F4DE
:100F600080440094314C3444A446D4F80848960791
:100F7000370F0EFA07F6B4432D4EB04201D10026CA
:100F800024E02C4EB04201D101261FE02A4EB0428F
:100F900002D102261AE040E0284EB04201D10326D9
:100FA00014E0274EB04201D104260FE0254EB04296
:100FB00001D105260AE0244EB04201D1062605E003
:100FC000224EB04201D1072600E00826BE4026434B
:100FD000CCF808681E4E34684F689C43FF0300D568
:100FE0001C4334601A4C241D26684F689E43BF037F
:100FF00000D51E432660164E083634684F689C4361
:10100000FF0200D51C433460114E0C3634684F6823
:101010009C43BF0200D51C433460521C102AFFF4CD
:1010200045AFBDE8F88F0000443802400030014071
:10103000000002400004024000080240000C024090
:10104000001002400014024000180240001C024040
:10105000003C01400069084000D0012070470AB1FF
:10106000816170470904FBE7014880687047000010
:101070003000002070B5040025D094F83D00002514
:1010800020B984F83C50204600F03EFA242084F831
:101090003D002068016821F00101016020680168BD
:1010A00041F4004101602068016821F400410160C1
:1010B00000F092FB4D4A6168914201D84C4900E032
:1010C0004C49884201D2012070BD4B492368B0FBD6
:1010D000F1F15E6826F03F060E435E60636893425E
:1010E00006D94FF4967359434FF47A73B1FBF3F179
:1010F0002368491C1E6A26F03F0631431962616865
:10110000914210D84900401EB0FBF1F2521CC2F3CC
:101110000B02042A01D2042022E0B0FBF1F0401CB3
:10112000C0F30B001CE0A268F2B301EBC10303EBB8
:101130000116431EB3FBF6F35B1C43F480431B050F
:1011400049D092B301EBC10202EB0111401EB0FB8A
:10115000F1F0401CC0F30B0040F4804040F400402C
:101160002168CA694CF6FF739A431043C861D4E9F9
:10117000071001432068026822F0C0021143016099
:10118000D4E9030101432068826848F2FF339A439F
:1011900011438160D4E9050108432168CA6822F03F
:1011A000FF021043C86001E00EE016E0206801680D
:1011B00041F0010101602564202084F83D00256391
:1011C00084F83E50002070BD01EB4106431EB3FB86
:1011D000F6F35B1CB3E70120C2E701EB4101401EBF
:1011E000B0FBF1F0401CC0F30B00B7E7A086010094
:1011F00080841E0000093D0040420F002DE9F84F99
:101200001F4690468A460446DDF82890FFF72CFFDB
:10121000054694F83D00202875D1192301226C4918
:101220002046009501F048F90028F5D194F83C00DB
:10123000012868D0012084F83C0020680168C907B3
:1012400003D1016841F0010101602068016821F4C7
:1012500000610160222084F83D00102084F83E00E7
:1012600000262664C4F824806785608D208559484F
:10127000E0622B464A465146204601F033F80028EA
:1012800078D1208D544F68B1012814D002282068ED
:10129000016816D041F4806101602068416980696D
:1012A000009087E02068416981690091016841F4FC
:1012B000007101607EE02068016821F480610160B6
:1012C000F0E721F4806101602068016841F4006169
:1012D000E2E7032848D801280AD0022814D04B4658
:1012E000002239462046009501F0E6F8D8BB27E0F9
:1012F0002A464946204601F05EF9A0BB20680069F5
:10130000616A08704DE061E04B4600223946204694
:10131000009501F0D1F830BB2068016841F40071FC
:10132000016020680069616A0870606A401C606240
:10133000218D491E2185618D491E618521682EE020
:101340002068016821F48061016020680069616A99
:101350000870606A401C6062208D401E2085608D90
:10136000401E6085D0E705E02A464946204601F048
:1013700022F910B10120BDE8F88F20680069616A88
:101380000870606A401C6062218D491E2185618D54
:10139000491E618521684A69D24352070AD4096906
:1013A0000170606A401C6062208D401E2085608D47
:1013B000401E6085208D00288BD1202084F83D00C0
:1013C00084F83E6084F83C600020D4E70220D2E735
:1013D000020010000000FFFF040001002DE9F84F9B
:1013E0001F4690468A460446DDF82890FFF73CFEEB
:1013F000054694F83D0020287FD119230122404959
:101400002046009501F058F8002876D194F83C0069
:10141000012872D0012084F83C0020680168C907C7
:1014200003D1016841F0010101602068016821F4E5
:1014300000610160212084F83D00102084F83E0006
:1014400000262664C4F824806785608D20852D4899
:10145000E0622B464A465146204600F0B9FF90B95B
:10146000206841698069009036E02A464946204656
:1014700001F0D4F850B1206C042804D12068016830
:1014800041F4007101600120BDE8F88F606A2168B5
:1014900000780861606A401C6062618D491E618548
:1014A000218D491E89B2218522685369DB435B0780
:1014B0000BD451B100781061606A401C6062608D8D
:1014C000401E6085208D401E20852A4649462046C4
:1014D00000F0CCFF0028CED1208D0028C5D154F8D3
:1014E0003D0B016841F400710160202004F81E09E1
:1014F000E67766770020C7E7FFE70220C4E7000031
:10150000020010000000FFFF10B586B00446142151
:101510006846FEF79FFE13492068884220D1124892
:10152000016841F0020101600068694600F00200B4
:101530000590C0200090122001900120029003200D
:101540000390042004900948FFF7A8FC06481030D7
:10155000016841F400110160006800F4001005907A
:1015600006B010BD00540040303802400004024074
:101570000248816802781144816070473000002081
:101580000B4810B5016841F400710160016841F435
:1015900080610160016841F480710160032000F006
:1015A0006FF8002000F006F800F024F8002010BDCD
:1015B000003C024070B50D4D04464FF47A71287816
:1015C000B1FBF0F00A490968B1FBF0F000F082FBD2
:1015D00048B9102C07D200222146501E00F030F8E6
:1015E00000206C6070BD012070BD00003000002044
:1015F0003C0000200A4808B5016841F480410160C0
:10160000006800F4804000900548001F016841F028
:1016100080510160006800F08050009008BD00001B
:1016200044380240002809DB00F01F0201219140EC
:101630004009800000F1E020C0F800117047000070
:10164000F0B40E4B1B680C46C3F30223C3F107052D
:10165000042D00D90425191D072901D2002300E01B
:10166000DB1E012606FA05F1491E214099409E40E5
:10167000761E16403143F0BC01F07CBE0CED00E05C
:10168000064900F0070208684FF6FF03184040EAD9
:101690000220034A10430860704700000CED00E090
:1016A0000000FA052DE9F0470E46050065D0DFF889
:1016B0001481D8F80000F7B200F00F00B04207D252
:1016C00088F80070D8F8000000F00F00B04254D144
:1016D00028683D4C810712D5400703D5206840F4A7
:1016E000E05020602878000703D5206840F460406F
:1016F00020602068A96820F0F00008432060287866
:10170000C0072DD0304968680839012812D0022856
:1017100013D0032811D00968890700292DDA216820
:1017200021F0030101432160FFF79EFC814641F255
:10173000883A0EE009688903EFE709688901ECE758
:10174000FFF792FCA0EB0901514502D90320BDE847
:10175000F0872068696800F00C00B0EB810FEFD1D2
:10176000D8F80010404601F00F01B14207D90770C8
:10177000006800F00F00B04201D00120E7E72878B0
:10178000400705D52068E96820F4E0500843206050
:101790002878000706D52068296920F4604040EACF
:1017A000C100206000F038F82168084AC1F3031135
:1017B000515CC8400649086006480068FFF7FAFE19
:1017C0000020C4E7003C0240083802406063000883
:1017D0003C000020340000200448054900680968E6
:1017E000044AC1F38221515CC84070473C0000208C
:1017F0000838024070630008044805490068096819
:10180000044AC1F34231515CC84070473C0000209B
:101810000838024070630008104810B5006810F0E6
:101820000C010F4818D0042916D0082914D10B4CEC
:10183000241F216801F03F02216821680023C1F3C1
:101840008811A1FB0001FEF7BBFC2168C1F3014137
:10185000491C4900B0FBF1F010BD000008380240FF
:101860000024F4002DE9F84F040076D02078DFF84A
:1018700038A3CE4DC00749D0DAF800105046C1F366
:101880008101012908D00068C0F3810002280AD133
:10189000281D0068400206D52868800336D5606898
:1018A0000028E2D032E06068B0F5803F10D0B0F59B
:1018B000A02F286810D020F480302860286820F4F9
:1018C000802028606068A0B1FFF7CEFB06460CE0E0
:1018D000286840F48030F4E740F480202860F7E77F
:1018E000FFF7C2FB801B642873D828688003F7D5F4
:1018F0000CE0FFF7B9FB064605E000BFFFF7B4FBBD
:10190000801B6428F0D828688003F7D42078DFF89B
:10191000A08280074FF000093ED5DAF8001050464B
:1019200011F00C0F09D00068C0F3810002280BD120
:101930009D48001F0068400206D42868800715D51E
:10194000E068012809D111E0E068B8B10120C8F8C9
:101950000000FFF789FB064605E020E1FFF784FB66
:10196000801B0228C0D828688007F7D5286821691D
:1019700020F0F80040EAC10028600DE0C8F80090AF
:10198000FFF772FB064604E0FFF76EFB801B0228A0
:101990001FD828688007F7D42078000722D5824E08
:1019A000844861696C3671B101210160FFF75CFB0D
:1019B000074604E0FFF758FBC01B022809D830682F
:1019C0008007F7D50EE0C0F80090FFF74DFB074603
:1019D00005E082E0FFF748FBC01B02287DD8306895
:1019E0008007F7D42078400768D5DFF8BCB100271E
:1019F0000BF1380BDBF80000C0000BD4DBF8001053
:101A000041F08051CBF80010DBF80000012700F016
:101A100080500090684E3068C00510D4306840F4A3
:101A200080703060FFF720FB009005E0FFF71CFBA3
:101A30000099401A022850D83068C005F6D55A4E91
:101A4000A068683601280FD00528306810D020F033
:101A500001003060306820F004003060A068B8B148
:101A6000FFF702FB00900FE0306840F00100F4E760
:101A700040F004003060F7E7FFF7F6FA0099411AEA
:101A800041F28830814266D830688007F4D50EE094
:101A9000FFF7EAFA009007E0FFF7E6FA0099411A2B
:101AA00041F28830814256D830688007F4D42FB193
:101AB000DBF8001021F08051CBF80010A069D0B302
:101AC000DAF800205146C2F38102022A4AD00228E5
:101AD000484607D0C8F8600000E03CE0FFF7C4FAD1
:101AE00004463BE04746C8F86000FFF7BDFA0646EB
:101AF00005E000BFFFF7B8FA801B02282BD8286842
:101B00008001F7D4D4E907010843A16A2B4A4908A8
:101B100002EB0141626A41EA8211084394F82C10F9
:101B200040EA01612048001F016001203866FFF78C
:101B30009BFA044605E034E0FFF796FA001B022802
:101B400009D828688001F7D52BE000BFFFF78CFA91
:101B5000001B022802D90320BDE8F88F2868800105
:101B6000F4D41EE00128F7D00868E26900F480018F
:101B7000914214D1226A00F03F0191420FD147F601
:101B8000C071626A0140914209D1A26A00F44031F9
:101B9000914204D1E16A00F07060884201D00120D6
:101BA000DAE70020D8E70000083802400038024099
:101BB00000004742800E4742007000400000FFFFD7
:101BC00070B5040005D00025A56294F8510010B14D
:101BD00006E0012070BD84F85050204600F030F837
:101BE000022084F851002068016821F04001016062
:101BF000D4E901010843D4E90312114308436169A0
:101C00000843218B01F400710843E1690843216A0C
:101C10000843A16A084321680860A069042101EA19
:101C20001040616A0843216848602068C16921F456
:101C30000061C1616565012084F85100002070BD1C
:101C4000F0B587B0044614216846FEF703FB1D4932
:101C50002068884233D11C480024016841F40041C7
:101C60000160006800F400400590174810380168D2
:101C700041F001010160016801F001010591016875
:101C800041F0040101600068022500F004000590A5
:101C90001020CDE9000502AA0326062782E8D0001D
:101CA00069460A48FFF7FAF84FF4E050CDE900051D
:101CB00002AA694682E8D0000548FFF7EFF807B0AE
:101CC000F0BD0000003C00404038024000000240EF
:101CD0000008024010B5401EB0F1807F01D3012002
:101CE00010BD4FF0E02460610F21601701F042FB4E
:101CF0000020A06107202061002010BD10B590F8E1
:101D00003C20012A22D0012280F83C20CA688C683D
:101D100022F4407222434C6822F4806222430C6811
:101D200022F4006222430C6922F4805222434C695F
:101D300022F400522243C969002322F480420A435C
:101D400001684A6480F83C30002010BD022010BDBC
:101D500070B590F83C20012A32D0012480F83C4034
:101D6000022280F83D2003685A689D6822F07006C0
:101D70000A6832435A60134B02689A4214D0B2F197
:101D8000804F11D0104B9A420ED0104B9A420BD07C
:101D90000F4B9A4208D00F4B9A4205D00E4B9A42F5
:101DA00002D00E4B9A4204D1496825F080031943B2
:101DB000916080F83D40002180F83C10084670BDDD
:101DC000022070BD000001400004004000080040F7
:101DD000000C004000040140004001400018004099
:101DE000F0B587B0044614216846FEF733FA404B3D
:101DF000216800243F4802250122994211D101683F
:101E000041F0100101600068029400F0100005909C
:101E10004FF4D440CDE90005CDE903526946364878
:101E200038E0364FB1F1804F23D0354A0326914236
:101E300034D1016841F001010160016801F0010144
:101E40000591016841F0020101600068694600F0F7
:101E500002000590C0200090CDE901542948CDE949
:101E60000345FFF71BF80096CDE901546946384653
:101E700026E0016841F0020101600068694600F057
:101E8000020005904FF440600090CDE90154CDE987
:101E900003423846FFF702F807B0F0BD1A4A9142F4
:101EA00011D1016841F0080101600068694600F045
:101EB000080005904FF470400090CDE9015413489C
:101EC000CDE90345E6E7124A9142E5D1016841F0C8
:101ED000040101600068694600F0040005904FF4B9
:101EE00070700090CDE90154CDE903460948D1E76F
:101EF000000001403038024000100240000402405F
:101F0000000400400000024000080040000C0240B5
:101F1000000401400008024070B5044690F83C00FF
:101F20000D4601280DD0012684F83C60022084F87B
:101F30003D0042B1042A18D0082A2AD00C2A4DD1DB
:101F400039E0022070BD206801F072F820688169D4
:101F500041F0080181612068816921F004018161FB
:101F6000206881692A69114311E0206801F090F826
:101F70002068816941F4006181612068816921F4F0
:101F800080618161206881692A6941EA0221816159
:101F900024E0206801F0B2F82068C16941F008012E
:101FA000C1612068C16921F00401C1612068C16973
:101FB0002A69114311E0206801F0D4F82068C16952
:101FC00041F40061C1612068C16921F48061C1618F
:101FD0002068C1692A6941EA0221C16184F83D6033
:101FE000002084F83C0070BD10B5040003D094F8C4
:101FF0003D0010B107E0012010BD002084F83C0036
:10200000204600F00DF8022084F83D00211D2068D4
:1020100000F09CFF012084F83D00002010BD00006E
:1020200008B501681B481C4A814205D1106840F080
:1020300001001060106812E01748001FB1F1804FD6
:1020400008D0164B99420ED1016841F0020101609F
:1020500000681BE0016841F001010160006800F0C8
:102060000100009008BD0E4B994207D1016841F074
:1020700004010160006800F00400F2E709488142B1
:10208000F0D1106840F002001060106800F002000B
:10209000E7E700000000014044380240000400402F
:1020A000000800400004014010B504460068012209
:1020B00000F0B0FF0B492068884202D00A498842EC
:1020C00003D1416C41F4004141642068816801F012
:1020D0000701062903D0016841F0010101600020D9
:1020E00010BD0000000001400004014010B504468E
:1020F0000068002200F08EFF114841F211122168A1
:102100009310814202D00F48814209D1086A1042DF
:1021100006D1086A184203D1486C20F40040486494
:102120002068016A114206D1016A194203D101688F
:1021300021F001010160012084F83D00002010BD64
:10214000000001400004014070B5040004D094F880
:102150003900002510B106E0012070BD84F8385028
:10216000204600F023F8242084F839002068C16854
:1021700021F40051C160204601F01CF8206801697B
:1021800021F4904101612068416921F02A014161F7
:102190002068C16841F40051C160E563202084F8E3
:1021A000390084F83A00002070BD00002DE9F041AC
:1021B00086B0044614216846FEF74CF8364922687A
:1021C000002436480225032607278A4217D13349BF
:1021D00014310A6842F010020A60096801F0100127
:1021E0000591016841F0010101600068694600F055
:1021F000010005907002CDE90005294818E0274943
:10220000284B1031DFF8A0809A4219D10A6842F4B5
:1022100000320A60096801F400310591016841F05B
:1022200008010160006800F00800059078202EE0A9
:1022300002AA82E8D000FEF731FE06B0BDE8F081C8
:102240001A4B9A42F9D10A6842F480220A6009685E
:1022500001F480210591016841F0020101600168EB
:1022600001F002010591016841F008010160006878
:1022700002AA00F0080005901814CDE9000582E8D4
:10228000D00069460A48FEF709FE4FF43060CDE9F8
:10229000000569464046CBE7001001403038024057
:1022A0000000024000440040000C02400048004092
:1022B00000040240FEE701684A69D24352050FD488
:1022C0006FF480624A61002140F8301F202242737F
:1022D0008173026942F004020261017301207047B8
:1022E000002070472DE9F84F0446C06A1E46934609
:1022F0000D4621680A6842F480620A60082807D007
:10230000012805D010F5803F02D0206B112804D1A0
:102310002068016841F4807101604FF001195B464B
:10232000002249462046009600F0C6F84FF4007897
:1023300040B120680068C00501D5C4F84080032082
:10234000BDE8F88F2069DFF884A0B0F5804F0FD08A
:102350000620216800EAD51747F0F00008613346EF
:102360005A460AF10601204600F0DAF858BB03E0AD
:10237000E8B240F001001CE02168E8B20861334691
:102380005A465146204600F0CBF8E0B92068416932
:1023900081690091016841F4807101605B4600220F
:1023A00049462046009600F087F80028C1D147F042
:1023B000F1002168086133465A465146204600F034
:1023C000AFF80028BCD00120BAE7000002000100ED
:1023D000F8B50446C06A1E460D461746082807D0C1
:1023E000012805D010F5803F02D0206B122804D1BF
:1023F0002068016841F480710160134600224FF0AB
:1024000001112046009600F057F840B1206800689E
:10241000C00502D54FF4007020640320F8BD206988
:10242000B0F5804F0ED00620216800EAD51040F0AC
:10243000F000086133463A460B49204600F070F838
:1024400078B902E005F0FE0000E0E8B2216808611A
:10245000054933463A46891F204600F061F80028B6
:10246000DCD00120F8BD00000800010070B5164660
:102470000D4604460DE02046FFF71DFF08B1012080
:1024800070BD681C05D0FEF7EFFD801BA84207D881
:1024900035B120684069C0434007ECD4002070BDCE
:1024A000002044F8300F20216173A073216941F0AE
:1024B000200121612073E2E72DE9F0471E46904696
:1024C0000D460446C1F30747DDF8209008E0701C74
:1024D00006D0FEF7C9FDA0EB0900B0420FD876B1D7
:1024E0002068012F18D0806925EA00000004000C44
:1024F00014D000214145EAD00020BDE8F08700203B
:1025000044F8300F20216173A073216941F020014C
:10251000216120730120F0E74069E5E70121E9E747
:102520002DE9F0479A4691460E46044600254FF0A5
:102530002008C1F3074725E020684069C0434005F3
:1025400014D42068016841F40071016021686FF4BF
:1025500080604861256384F83D8084F83E50206C9B
:1025600040F00400206484F83C501FE0B9F1FF3FC4
:1025700008D0FEF779FDA0EB0A0149450CD8B9F166
:10258000000F09D02068012F13D0806926EA0000CF
:102590000004000C0BD0CFE744F8305F84F80D80C6
:1025A000A573206940F02000206125730120BDE85B
:1025B000F0874069EAE72DE9F041002590460E4694
:1025C0000446202717E04069C043C0060CD454F8E5
:1025D000301B6FF01000486144F810596777A577F9
:1025E000206A2062257717E0FEF73EFDA0EB080089
:1025F000B04208D83EB120684169C9434906E2D4D7
:102600000020BDE8F08144F8305F6773A57320694E
:1026100040F02000206125730120F2E770B51646D6
:102620000D4604460DE02046FFF745FE08B10120A7
:1026300070BD681C05D0FEF717FD801BA84207D8A7
:1026400035B120684069C0430006ECD4002070BD5D
:10265000002044F8300F20216173A073216941F0FC
:10266000200121612073E2E710B5012000F046FB54
:10267000012000F033FB4FF47A70FEF782FA00205D
:1026800000F02CFB6420FEF77CFA012000F026FB12
:102690004FF4FA70FEF775FA112000F0E9FA96206F
:1026A000FEF76FFA3A2000F0E3FA052000F0F6FAA0
:1026B000292000F0DDFABDE810402C2000F0D8BA47
:1026C0007FB5002411480094019402940E490394AC
:1026D00001604FF48031C0E901140461047680F890
:1026E00020400B49C0E90A140125C561C46080F887
:1026F00030404561FEF7F6FACDE9004569460348EA
:102700000294FEF749FA7FBD002001408CA0002012
:102710000100000F7FB50024114800940194029439
:102720000E49039401604FF48031C0E90114046143
:10273000047680F820400B49C0E90A140125C561E0
:10274000C46080F830404561FEF7CCFA0095CDE9D1
:10275000015469460248FEF71FFA7FBD002101407F
:10276000D4A000200100000F7FB50024124800947F
:10277000019402940F49039401604FF48031C0E941
:1027800001140461047680F820400C49C0E90A1461
:102790000125C561C46080F830404561FEF7A2FAAA
:1027A0000220CDE90005694602940348FEF7F4F9DA
:1027B0007FBD0000002201401CA100200100000F8D
:1027C0002DE9F04F87B014216846FDF743FD5148CD
:1027D0000024016841F010010160016801F010015E
:1027E0000591016841F004010160016801F00401F4
:1027F0000591016841F080010160016801F08001EC
:102800000591016841F001010160016801F00101D9
:102810000591016841F002010160016801F00201C7
:102820000591016841F00801016000683A4E00F02E
:1028300008000590002260213046FEF710FCDFF80A
:10284000DC9000220F214846FEF709FCDFF8D0B0EB
:102850004FF44057002239465846FEF700FCDFF897
:10286000C4A04FF40068002241465046FEF7F7FB33
:102870001C2000902C48CDE9010469463046FEF743
:102880000DFB602000900125CDE9015469463046DA
:102890000394FEF703FB0F200326CDE90005CDE9E5
:1028A000024669464846FEF7F9FA00970396CDE9D5
:1028B000015469465846FEF7F1FACDF80080CDE99B
:1028C0000154694650460394FEF7E8FA2020CDE90A
:1028D0000004694658460294FEF7E0FA00221146C9
:1028E0000820FEF7ADFE0820FEF79CFE00221146F0
:1028F0000920FEF7A5FE0920FEF794FE00221146EE
:102900000A20FEF79DFE0A20FEF78CFE07B0BDE808
:10291000F08F0000303802400010024000080240F2
:102920000004024000000240000011100B480A4958
:102930004FF4802201604FF4827141600021816078
:10294000C1600161C0E90512C16101624162816239
:102950000A21C162FFF734B9003C0040B8A1002051
:1029600030B591B000240F941C2168461094FDF7F7
:1029700071FC202107A8FDF76DFC24482249016065
:102980004FF42F714160202181604CF25031C0E939
:10299000031444618461FFF727FB0F940FA91B48C0
:1029A0001094FFF7D5F96020CDE900040294039458
:1029B000049405940022694614480694FFF7ACFA83
:1029C00002250422694611480295FFF7A5FA08225C
:1029D00069460E480294FFF79FFA0C2269460B489D
:1029E0000295FFF799FA07940894099428030A942A
:1029F000CDE90B4007A905480E94FFF77FF903487E
:102A0000FFF7EEF911B030BD0000014010A2002028
:102A100010B58AB0002407941C2168460894FDF77D
:102A200019FC14484FF0804101602321C0E90114D2
:102A30004FF4FA61C0E903148461FFF7D5FA0794F3
:102A400007A90C480894FFF783F96020CDE900043A
:102A500002940822694607480494FFF75DFA0C22A5
:102A600069460448FFF758FA0248FFF7B9F90AB077
:102A700010BD000050A2002030B589B0002407949A
:102A80001C2168460894FDF7E5FB1C481A490160C3
:102A90004FF42F714160202181604CF25031C0E928
:102AA00003148461FFF7A0FA079407A91348089458
:102AB000FFF74EF96020CDE9000402940022694638
:102AC0000E480494FFF728FA0225042269460B48B1
:102AD0000295FFF721FA0822694608480294FFF799
:102AE0001BFA0C22694605480295FFF715FA0348C0
:102AF000FFF776F909B030BD0004004090A2002035
:102B000030B589B0002407941C2168460894FDF76D
:102B1000A1FB1C481A4901604FF42F71416020212C
:102B200081604CF25031C0E903148461FFF75CFA14
:102B3000079407A913480894FFF70AF96020CDE924
:102B400000040294002269460E480494FFF7E4F959
:102B50000225042269460B480295FFF7DDF9082299
:102B6000694608480294FFF7D7F90C2269460548E0
:102B70000295FFF7D1F90348FFF732F909B030BDEC
:102B800000080040D0A2002030B591B000240F947E
:102B90001C2168461094FDF75DFB202107A8FDF776
:102BA00059FB2448224901604FF42F7141602021D4
:102BB00081604CF25031C0E9031444618461FFF735
:102BC00013FA0F940FA91B481094FFF7C1F8602067
:102BD000CDE900040294039404940594002269460C
:102BE00014480694FFF798F9022504226946114813
:102BF0000295FFF791F9082269460E480294FFF703
:102C00008BF90C2269460B480295FFF785F907946A
:102C10000894099428030A94CDE90B4007A90548B4
:102C20000E94FFF76BF80348FFF7DAF811B030BDE8
:102C30000004014010A30020FEE770477047000029
:102C400070B505465FF0000405FA04F0000601D5F2
:102C5000012000E0002000F039F8002000F046F8E4
:102C6000012000F043F8641CE4B2082CECD370BDE2
:102C700010B50446002000F041F8002000F026F8CE
:102C8000002000F033F8012000F030F82046FFF774
:102C9000D7FFBDE81040012000F030B810B5044661
:102CA000002000F02BF8002000F020F8012000F0B8
:102CB0000DF8012000F01AF82046FFF7C1FFBDE82B
:102CC0001040012000F01AB8704700000246024888
:102CD000818B8069FEF7C3B944A0002002460248F8
:102CE00081880068FEF7BBB944A000200246024874
:102CF000818A0069FEF7B3B944A000200246024869
:102D000081898068FEF7ABB944A000202DE9F0412D
:102D100000213748FFF7C8F904213548FFF7C4F907
:102D200008213348FFF7C0F90C213148FFF7BCF9FF
:102D3000304846F2A314446346F2AD15856345F668
:102D4000C556C66345F6BB57076429480021803045
:102D5000FFF7AAF9264804218030FFF7A5F9244897
:102D600008218030FFF7A0F921480C218030FFF7BF
:102D70009BF921480460001D0560001D0660001DD0
:102D800007601B480021C030FFF78EF91848042166
:102D9000C030FFF789F916480821C030FFF784F9E1
:102DA00013480C21C030FFF77FF914480460001D60
:102DB0000560001D0660001D076000211048FFF738
:102DC00073F904210E48FFF76FF908210C48FFF74B
:102DD0006BF90C210A48FFF767F90A480460001DE7
:102DE0000560001D0660001D0760BDE8F081000061
:102DF00010A20020000001403404004034080040CC
:102E000010A300203404014010B500212448FFF72E
:102E10006DF904212248FFF769F908212048FFF7DE
:102E200065F90C211E48FFF761F91D48002180302B
:102E3000FFF75CF91A4804218030FFF757F918486A
:102E400008218030FFF752F915480C218030FFF738
:102E50004DF913480021C030FFF748F9104804210C
:102E6000C030FFF743F90E480821C030FFF73EF9A4
:102E70000B480C21C030FFF739F900210948FFF752
:102E800035F904210748FFF731F908210548FFF714
:102E90002DF9BDE810400C210248FFF727B90000CA
:102EA00010A2002010A30020FEF762BB30B593B043
:102EB00030216846FDF7CEF914210CA8FDF7CAF9B8
:102EC00019480025016841F080510160006800F058
:102ED000805011901548016841F4804101600068FC
:102EE000022400F4804011900120039010200490EF
:102EF000009406940820CDE907508C20CDE9090400
:102F000004200B906846FEF7ADFC0CA90F2081E869
:102F100031004FF4A0500F90109004210CA8FEF740
:102F2000C1FB13B030BD00004038024000700040CB
:102F30000548016841F47001016003494FF00060E9
:102F4000803908607047000088ED00E0F0B5026845
:102F5000254C264D264E274F274B4FF0804CA04244
:102F600009D0604507D0A84205D0B04203D0B8428E
:102F700001D0984204D122F0700E4A6842EA0E0253
:102F8000A0421BD0604519D0A84217D0B04215D03E
:102F9000B84213D0984211D0184DA8420ED0184D07
:102FA000A8420BD0174DA84208D0174DA84205D013
:102FB000164DA84202D0164DA84203D122F4407506
:102FC000CA682A434D6922F080022A4302608A6857
:102FD000C2620A688262A04201D0984201D10969A6
:102FE000016301214161F0BD000001400004004087
:102FF00000080040000C0040000401400040014077
:10300000004401400048014000180040001C0040FE
:103010000020004010B501F01F030121046A99400F
:103020008C430462016A9A401143016210BD0000A2
:10303000F0B5026A22F001020262036A4268846902
:10304000124E24F073050C682C4323F002058B68A4
:103050002B430D4DA84201D0B04205D123F0080703
:10306000CB683B4323F00403A84201D0B04205D112
:103070004D6922F4407215438A692A434260846193
:10308000496841630362F0BD000001400004014053
:10309000F0B5026A22F010020262026A4368846993
:1030A0000D6824F4E64444EA05248D6822F02002E9
:1030B00042EA05120F4D104EA84201D0B04206D18F
:1030C000CF6822F0800242EA071222F04002A842B2
:1030D00001D0B04207D14D6923F4406343EA850330
:1030E0008D6943EA850343608461496881630262B4
:1030F000F0BD00000000014000040140F0B5026A8C
:1031000022F480720262026A4368C46922F4007287
:1031100024F073050C68124E2C438D6842EA052298
:103120000E4DA84201D0B04206D1CF6822F4006211
:1031300042EA072222F48062A84201D0B04207D1BD
:103140004D6923F4405343EA05138D6943EA05139F
:103150004360C4614968C1630262F0BD0000014080
:103160000004014030B5026A22F480520262046A0F
:103170004268C3690D6823F4E64343EA05238D687A
:1031800024F4005444EA0534084DA84202D0084D06
:10319000A84204D14D6922F4804242EA851242607D
:1031A000C36149680164046230BD00000000014051
:1031B000000401402DE9F041044600680169E2681D
:1031C00021F44051114301612169A068E26908437B
:1031D0006169114308432168CA6849F20C639A4344
:1031E0000243CA6020684169A26921F44071114319
:1031F0004161E069192764253226B0F5004F354A50
:10320000354920684FF0000806D0884201D090422E
:1032100036D1FEF7F1FA35E0884201D0904202D172
:10322000FEF7EAFA01E0FEF7D7FA61684A18A0FB58
:10323000070148EB0803FCF7C3FF0146B0FBF5F0BC
:103240000201B1FBF5F06FF01803584301EB800069
:1032500006EBC000B0FBF5F000F0F80002EB400216
:10326000B1FBF5F0584301EB800006EBC000B0FB6A
:10327000F5F000F00700216810448860BDE8F08197
:10328000FEF7AAFA61688B0F8A00A0FB0701FCF722
:1032900097FF0146B0FBF5F06FF01802504301EBC9
:1032A000800006EB0010B0FBF5F000F0F002B1FB7F
:1032B000F5F002EB0012B1FBF5F06FF01803584384
:1032C00001EB800006EB0010B0FBF5F000F00F0002
:1032D000D1E7000000140140001001402DE9F04149
:1032E0000C4F0025002407EB052600BF16F814003C
:1032F000FFF7D4FC36F81400000AFFF7CFFC641C7B
:10330000A4B2802CF2D36D1CADB2A02DEAD3BDE8DF
:10331000F081000044000020FEE700000FB4084BDD
:1033200010B504A902AA039801F036F8044602A9D0
:10333000002001F0C8FB204610BC5DF814FB000023
:10334000C74A000803B401984100009850EAC12020
:1033500018BF04204A0D18BF40F0010040F2FF7270
:10336000B2EB515F08BF40F00200012808BF052002
:1033700002B070470907090E002804DB00F1E020C5
:1033800080F80014704700F00F0000F1E02080F892
:10339000141D704710EE101A4FF07F42B2EB410F30
:1033A0003CBF80ED000A7047C1F3C752A2F17F0312
:1033B00010EE102A172B02F0004212DA002BBEBFCB
:1033C00001F0004101607047DFF820C02CFA03F3E0
:1033D000194206D0994300EE901A016030EE600A5F
:1033E000704780ED000A00EE102A7047FFFF7F0053
:1033F0002DE9F04D2DED040B2DED0E8B96B0DDE992
:103400002550279CDDF890A025F0004624F00048C8
:10341000BAF1000F14BF0121002101EB4502FC4964
:1034200053184A1093422AD3002814BF01230023C3
:1034300003EB44030B44F7498B4220D358EA0001C5
:103440009FEDF59B76D0DFF8D8B35D4503D1BAF197
:10345000000F05D188E0BAF1000F08BF002100D0AD
:10346000012101EB450111F5001F08D8002814BF08
:103470000121002101EB440111F5001F0BD99DED45
:10348000261B9DED240B16B0BDEC0E8B04B0BDE8E1
:10349000F04D00F06DBE0027002DBCBFE14988450E
:1034A00021DAE1498845A8BF02271CDAC3451ADCA6
:1034B000DE4901EB2851142908DDC1F1340220FA5C
:1034C00002F101FA02F282420DD108E058B9C1F1CD
:1034D000140228FA02F101FA02F2424503D101F086
:1034E0000101C1F1020756EA0A0124D1002C22DAB7
:1034F000002D18BF022F01D0012F0AD0022000F0AA
:1035000083FE16B0BDEC0E8B04B0BDE8F04D00F0AC
:1035100017BE022000F078FE00F012FE51EC100BF6
:1035200081F0004141EC100B16B0BDEC0E8B04B0E5
:10353000BDE8F08D18E09FEDBEAB9FEDBF8B00287E
:1035400071D1B848804522D105F1804010F5801036
:1035500008BFBAF1000F07D0B3450ADC002CA8BFA2
:103560009DED260BE0DA0DE0B0EE490AF0EE690AB7
:10357000DAE7002C06DA9DED260B51EC100B81F0FA
:1035800000416FE0AE48784490ED000BCCE7D845A1
:103590004DD1002C48DA2EB186423AD1BAF1000F53
:1035A00042D126E0BAF1000F13D0022000F02CFE29
:1035B00000F0FAFD8DED020B9DED240B8DED000B5F
:1035C00010EE900A039961F31E0003909DED020B2B
:1035D000AAE78DED02AB9DED240B1AEE901A10EECA
:1035E000900A8DED000B61F31E0003909DED020B20
:1035F0009AE78DED028B9DED240B18EE901A10EEDC
:10360000900A8DED000B61F31E0003909DED020BFF
:103610008AE709DA9DED240B51EC190B53EC102BC2
:10362000FCF743FF1EE020E09DED240B7CE7864283
:103630001BDAB4F1804F0DD0A4F10050B0F1FF506F
:1036400013D1002D11DB9DED240B51EC100B01F07B
:103650008FFF07E09DED240B53EC102B51EC100B6A
:1036600000F0C2BC41EC100B5EE79DED240B51EC69
:10367000100B01F0A5FABAF1000FCDE90E0142D10D
:103680009FED710B46B3A6F1E040B0F17F600CD026
:103690005E4538D1002D00DAA7B3022F0CBF012000
:1036A0004FF0FF30FCF770FFDCE7002D01DD002C50
:1036B0000DDA002D01DD002C1FDB002D16DA002CA9
:1036C00014DB012F08BF9FED620B3FF42DAFB0EE6E
:1036D0004A0AF0EE6A0A27E7022F18BF002D0CD025
:1036E000012F0AD1002DFFF61FAF06E0002DB8BF55
:1036F000002C08DA012F3FF417AFB0EE480AF0EEC5
:10370000680A11E71BE0012000EBE57050EA0701B1
:1037100015D0791EB0EE498AF0EE698A084308BFD9
:103720009FED4D8B4E480025804570DD4D494E483C
:10373000884514DDB0420DDB002C19DB2FE00120A1
:1037400000F062FD16B0BDEC0E8B04B0BDE8F04D8C
:1037500000F01ABDB34502DC002C09DC1FE08642F4
:1037600002DA002C1BDA03E05E452BDD002C16DDAF
:10377000022000F049FD00F017FD8DED020B53EC27
:103780001A2B51EC180BFCF71EFECDE90001039932
:10379000019861F31E0003909DED020BC4E6022028
:1037A00000F032FD00F010FD10EE901A18EE900AB5
:1037B0008DED020B8DED008B61F31E0003909DEDEE
:1037C000020BB1E69DED0E0B53EC192B51EC100BD7
:1037D000FCF7F3FD9FED260BCDE9080153EC102B10
:1037E0009DED080B51EC100BFCF7EDFD9FED221B3E
:1037F00053EC112BFCF7E4FD9DED081B53EC112B52
:10380000FCF7E1FD9FED1E1B53EC112B3CE08CE01F
:10381000FFFF1F00FFFF0F00000000000000F03F4F
:103820000000F03F0000F07F0000404301FCFFFF7C
:10383000000000000000F07F000000000000000019
:10384000762E000000000000000000000000008054
:10385000000000000000F0FF000000000000F0BFCA
:103860000000E0410000F043FFFFEF3F00000000D8
:10387000000000000000D03F555555555555D53F27
:10388000000000000000E03FFCF79AFD9DED080BF2
:1038900041EC1A0B53EC102B51EC100BFCF793FD81
:1038A00053EC1A2BFCF78FFD41EC1A0B9FEDFE0B2E
:1038B00053EC102B9DED080B51EC100BFCF783FD26
:1038C00041EC1B0B9FEDFA0B51EC1A0B53EC102B38
:1038D000FCF779FD41EC1A0B9FEDF70B53EC102B25
:1038E0009DED080B51EC100BFCF76DFD53EC1A2B02
:1038F000FCF763FD41EC1A0B51EC1B0B53EC1A2B3C
:10390000FCF7BAFC0690CDE906519DED060B53EC91
:103910001B2B51EC100BFCF750FD53EC1A2BFCF752
:103920004FFD41EC100B00F0A1B90020B6F5801F4F
:103930000EDA9FEDE30B53EC102B9DED0E0B51ECCB
:10394000100BFCF740FDCDE90E016FF034000E4680
:1039500000EB2650A0F2FF37C6F31300DA4940F01F
:103960007F6646F040568842D8BF002408DDD7491C
:103970008142C8BF012403DC0024A6F580167F1C09
:10398000D348784400EBC4000F9690ED00CB9DED3A
:103990000E0B53EC1C2B51EC100BFCF70EFD9DEDA8
:1039A0000E0B41EC1B0B53EC1C2B51EC100BFCF7DA
:1039B00063FC41EC100B51EC190B53EC102BFCF792
:1039C00074FD41EC1D0B51EC1B0B53EC1D2BFCF754
:1039D000FAFC41EC1A0BBF488DED10AB7844109502
:1039E00090ED000B4FF0005040EA660000EB844081
:1039F0008DED080B00F5002009909DED080B53ECB0
:103A00001C2B51EC100BFCF7D8FC9DED0E1B53EC5E
:103A1000112BFCF7D5FC41EC100B53EC102B9DED5A
:103A2000100B51EC100BFCF7CEFC9DED080B41EC9C
:103A30001C0B53EC102B9DED100B51EC100BFCF7F5
:103A4000C2FC53EC1B2BFCF7BBFC53EC1C2BFCF710
:103A5000B4FC53EC1D2BFCF7B6FC41EC1C0B53ECF7
:103A60001A2B51EC1A0BFCF7AEFC41EC1B0B9A48DD
:103A70000621B0EE4B0AF0EE6B0A784400F0E2FA51
:103A8000B0EE401AF0EE601AB0EE41DAF0EE61DA14
:103A900053EC1B2B51EC1B0BFCF795FC53EC1D2B33
:103AA000FCF791FC9DED100B41EC1B0B53EC1A2B1A
:103AB00051EC100BFCF7E0FB53EC1C2BFCF783FCE8
:103AC00053EC1B2BFCF7D8FB9DED100B41EC1B0BB3
:103AD00053EC102B51EC100BFCF775FC41EC1D0B5B
:103AE0009FED7FEB53EC1E2BFCF7C6FB53EC1B2B1F
:103AF000FCF7C2FB0890CDE908519DED080B53EC93
:103B00001E2B51EC100BFCF758FC53EC1D2BFCF753
:103B100054FC53EC1B2BFCF753FC9DED080B41ECC4
:103B20001D0B53EC102B9DED100B51EC100BFCF703
:103B30004AFC41EC1B0B53EC1A2B51EC1D0BFCF710
:103B400042FC9DED080B41EC1A0B53EC102B51EC91
:103B50001C0BFCF738FC53EC1A2BFCF78DFB41ECEB
:103B60001A0B51EC1B0B53EC1A2BFCF785FB0C903A
:103B7000CDE90C519DED0C0B53EC1B2B51EC100BB4
:103B8000FCF71BFC53EC1A2BFCF71AFC41EC1B0B4B
:103B90009FED550B53EC102B9DED0C0B51EC100BC6
:103BA000FCF711FC41EC1A0B9FED510B51EC1B0B78
:103BB00053EC102BFCF707FC41EC1B0B9FED4E0B5D
:103BC00053EC102B9DED0C0B51EC100BFCF7FBFB99
:103BD00053EC1B2BFCF750FB41EC100B484878448E
:103BE00000EBC40090ED001B51EC100B53EC112BBB
:103BF000FCF742FB41EC1B0B3846FCF7C5FCCDE95A
:103C0000080153EC1B2B51EC1A0BFCF735FB41EC74
:103C1000100B3C48784400EBC40090ED00CB51EC15
:103C2000100B53EC1C2BFCF727FB9DED081B53ECF2
:103C3000112BFCF721FB0690CDE906519DED080BF9
:103C400053EC102B9DED060B51EC100BFCF7B5FB64
:103C500053EC1C2BFCF7B1FB53EC1A2BFCF7ADFB20
:103C600053EC1B2BFCF7ACFB41EC100B9DED261B22
:103C700053EC102B8DED001B00959DED260B51ECA8
:103C8000100BFCF7A0FB9DED000B41EC1A0B53EC65
:103C9000102B9DED260B51EC100BFCF78EFB9DEDD0
:103CA000061B53EC112B2FE0000000604715F73F77
:103CB000FE822B654715F73F44DF5DF80BAE543E9F
:103CC00000000000000040438E9803007AB60B000D
:103CD000F2290000202A00002A290000000000002C
:103CE0000000000000000840000000E009C7EE3FAF
:103CF000FD033ADC09C7EE3FF5015B14E02F3EBE41
:103D0000B627000070270000FCF75DFB53EC1A2B70
:103D1000FCF7B2FA9DED060B41EC1A0B53EC102B9D
:103D20009DED000B51EC100BFCF74DFBCDE90C01A8
:103D30009DED0C0B51EC1A0B53EC102BFCF79CFA7D
:103D4000CDE902010C46AA498C422FDB611A0843D7
:103D500018D19DED0C0B53EC102B9DED020B51EC8B
:103D6000100BFCF72AFB41EC1B0B9FEDA30B51EC56
:103D70001A0B53EC102BFCF77FFA53EC1B2BFCF7C0
:103D80004DFD2DD2022000F03FFA00F00DFA10EEAA
:103D9000901A18EE900A8DED020B8DED008B61F3F9
:103DA0001E0003909DED020BFFF7BEBB944A24F06A
:103DB0000041914214D39349214408437FF4EFAC6E
:103DC0009DED0C0B53EC102B9DED020B51EC100BE9
:103DD000FCF7F3FA53EC1A2BFCF720FD7FF6DFAC6F
:103DE00024F000408849894A002601EB2051824294
:103DF0002BDA481C4FF4801121FA00F02044844A49
:103E0000C0F30A517A44A1F2FF3192ED000B814ACE
:103E10008DED080BCA4020EA0202C0F3130040F403
:103E20008010C1F1140120FA01F60992002CB8BFEC
:103E300076429DED080B53EC102B9DED0C0B51ECD5
:103E4000100BFCF7BAFACDE90C019DED0C0B51EC0F
:103E50001A0B53EC102BFCF70FFA9FED6F0B089029
:103E6000CDE9085153EC102B9DED080B51EC100BD4
:103E7000FCF7A9FA41EC1B0B9FED690B53EC102BDF
:103E80009DED080B51EC100BFCF79DFA9DED0C0B12
:103E900041EC1C0B53EC102B9DED080B51EC100B5F
:103EA000FCF78BFA53EC1A2BFCF78AFA9FED5E1B9A
:103EB00053EC112BFCF787FA53EC1C2BFCF7DCF9C5
:103EC00041EC1A0B51EC1B0B53EC1A2BFCF7D4F9F9
:103ED000CDE902019DED020B53EC1B2B51EC100BB5
:103EE000FCF76BFA53EC1A2BFCF76AFA9DED020B08
:103EF00041EC1A0B53EC102B51EC100BFCF763FA4E
:103F0000CDE908014A489DED080B0521784400F0F1
:103F100099F89DED081B51EC100B53EC112BFCF79D
:103F200052FA9DED021B53EC112BFCF749FACDE937
:103F300006019DED020B53EC1A2B51EC100BFCF714
:103F400042FA53EC1A2BFCF797F99FED3B0B41EC2F
:103F50001A0B53EC102B9DED060B51EC100BFCF7DC
:103F60002CFA9DED060B41EC1B0B53EC102B9DED39
:103F7000020B51EC100BFCF726FA53EC1B2BFCF751
:103F800094FA53EC1A2BFCF718FA9DED021B53EC34
:103F9000112BFCF712FA53EC192BFCF711FACDE9AF
:103FA000020101EB065001150029C8BF039015DC82
:103FB0009DED020B324651EC100BFCF700FCFFF7B5
:103FC000C1F9042808BF00F0FFF832469DED020B4E
:103FD00051EC100BFCF7F3FBCDE902019DED020B58
:103FE00051EC180B53EC102BFCF7EDF9FFF73ABB33
:103FF0000000904000000000FE822B654715973CB2
:1040000000CC904000346F3F01FCFFFF0000E03F18
:10401000F8250000FFFF0F0000000000432EE63FE0
:10402000396CA80C615C20BEEF39FAFE422EE63FE7
:10403000C824000000000000000000000000004054
:10404000FFF7D6B970B504462DED028B4D1E00EB7F
:10405000C500B0EE408AF0EE608A90ED000B35F0BE
:10406000060017D053EC182B51EC100BFCF7ABF9F2
:1040700041EC100B6D1E04EBC50090ED001B51ECE4
:10408000100B53EC112BFCF7F7F841EC100B35F04B
:104090000600E7D1022D36D0042D1CD0062D1CBF02
:1040A000BDEC028B70BD53EC182B51EC100BFCF7E0
:1040B0008AF994ED0A1B53EC112BFCF7DDF853EC55
:1040C000182BFCF780F994ED081B53EC112BFCF72F
:1040D000D3F841EC100B53EC182B51EC100BFCF700
:1040E00072F994ED061B53EC112BFCF7C5F853EC59
:1040F000182BFCF768F994ED040B53EC102BFCF72C
:10410000BBF841EC100B53EC182B51EC100BFCF7E7
:104110005AF994ED021B53EC112BFCF7ADF853EC5C
:10412000182BFCF750F994ED001B53EC112BFCF706
:10413000A3F8BDEC028B41EC100B70BD0000000039
:104140009FED070B10B553EC102B9FED070B51ECB7
:10415000100BFCF7AAF941EC100B10BD0000000099
:104160000000000000000000000000000000F03F20
:1041700010B553EC112B51EC100BFCF77DF841EC12
:10418000100B10BD000000009FED050B10B553ECA7
:10419000102B51EC100BFCF788F941EC100B10BD03
:1041A00000000000000000009FED050B10B553EC6F
:1041B000102B51EC100BFCF706F941EC100B10BD65
:1041C00000000000000000709FED050B10B553ECDF
:1041D000102B51EC100BFCF7F6F841EC100B10BD56
:1041E000000000000000001002E008C8121F08C113
:1041F000002AFAD170477047002001E001C1121F68
:10420000002AFBD170470000014908607047000098
:10421000400000202DE9FF5F82B00021DDE904307D
:10422000020DDDF840B0034318D044F61050A2F25E
:10423000FF3242431514119801281FD0A5EB0B0043
:10424000401C5FEA000A4FF000064E4FDFF838913D
:10425000B046504615D5CAF1000413E01198012468
:104260004AA3012801D16FEA0B010298119AC0E913
:104270000031C0E9024206B0BDE8F09FCBF100007A
:10428000DFE704460021404A491842EB0450CDE9DB
:10429000001012E0E00707D032463B464046494650
:1042A000FCF791F88046894632463B46104619464F
:1042B000FCF789F806460F466410002CEAD1DDE9C8
:1042C0000401DDE90023BAF1000F06DAFCF77BF800
:1042D00042464B46FCF777F805E0FCF7E6F8424625
:1042E0004B46FCF7E2F804460E460022284BFCF74A
:1042F00095FA03D84FF0FF30014607E00022254B26
:1043000020463146FBF7B8FFFCF770FA102409E0AD
:10431000002C0ADB0A220023FBF752FF039B3032FA
:104320001A55641E50EA0102F2D1641C039AC4F1CA
:1043300011031444119A012A03D0012208430DD11C
:104340000AE0084304D000204FF0110B119072E7EF
:10435000A3EB0B056D1E0DE05B4504DD4FF0000285
:1043600005F1010504E003DA4FF00002A5F10105B3
:10437000002AECD002981199C0E90231C0E9004549
:1043800079E70000000014400000F03F300000001A
:104390000000F0430000E03F2DE9FF4F95B09B4641
:1043A0008946064600250FE2252877D100242746B6
:1043B000F84A0121059400E0044316F8013F203B30
:1043C00001FA03F01042F7D130782A2811D06FF0AB
:1043D0002F033078A0F13002092A16D8059A44F04C
:1043E000020402EB820203EB42021044761C0590A9
:1043F000EFE759F8042B0592002A03DA504244F4FF
:104400000054059044F00204761C30782E2816D112
:1044100016F8010F44F004042A280DD06FF02F0283
:104420003078A0F13003092B09D807EB870302EBA2
:104430004303C718761CF3E759F8047B761C3078E1
:104440006C280FD006DC4C2817D068280DD06A28BD
:1044500014D104E0742810D07A280FD10DE044F470
:1044600000140AE044F4801401E044F4401472782B
:10447000824202D104F58014761C761C30786628BE
:104480000BD013DC582877D009DC002875D04528DC
:10449000F6D04628F4D047281AD19DE118E06328C9
:1044A00035D0642879D0652812D195E1702873D071
:1044B00008DC6728F1D069286FD06E280DD06F28EE
:1044C00006D1B5E073282CD0752875D0782874D023
:1044D0005A46179990476D1C75E1C4F302500228A3
:1044E00009D003280DD0D9F8001004280DD00D6094
:1044F00009F1040967E1D9F80010EA17C1E900528F
:10450000F6E7D9F800100D80F2E70D70F0E719F822
:10451000041B8DF8001000208DF80100EA460120F0
:1045200003E059F804AB4FF0FF3061074FF0000192
:1045300002D40DE008F101018846B9420FDA804546
:10454000F8DB1AF808100029F4D108E008F101019D
:1045500088468142FADB1AF808100029F6D105983E
:104560005B46A0EB080721463846179A00F094FAFC
:10457000284400EB080507E04DE029E10DE01AF8BA
:10458000010B5A4617999047B8F10108F7D25B46DC
:1045900021463846179A13E142E00A220092C4F3FA
:1045A00002524FF0000A022A08D059F804CB032A1D
:1045B0004FEAEC710AD00DE029E02AE009F1070189
:1045C00021F00702F2E802C1914609E00FFA8CFCE3
:1045D0004FEAEC71042A03D14FFA8CFC4FEAEC71DC
:1045E000002907DA0A460021DCF1000C61EB020128
:1045F0002D2202E0220504D52B228DF80420012271
:1046000003E0E20701D02022F7E7904659E00A21B3
:1046100002E010220DE010214FF0000A00910BE0A3
:1046200010224FF0000A44F004040827009203E02F
:1046300008224FF0000A0092C4F30252022A05D069
:1046400059F804CB0021032A08D009E009F1070139
:1046500021F00702F2E802C1914605E01FFA8CFC46
:10466000042A01D10CF0FF0C4FF00008220728D5D6
:10467000702806D0009B83F0100353EA0A0305D08C
:104680000EE040228DF80420012208E05CEA0102DD
:1046900006D030228DF804208DF8050002229046C5
:1046A000009B83F0080353EA0A030AD15CEA010283
:1046B00001D1620705D530228DF804204FF00108A2
:1046C0007F1E582804D034A003900EA802900DE05D
:1046D00036A0F9E753466046009AFBF771FD844621
:1046E0000398825C0298401E029002705CEA01000E
:1046F000F0D1029806A9081A00F1200A600702D535
:1047000024F4803400E00127574502DDA7EB0A00BE
:1047100000E0002000EB0A01009005984144401A97
:104720000590E00306D45B462146179A059800F0F1
:10473000B3F90544002706E001A85A46C05D179961
:1047400090476D1C7F1C4745F6DBE0030CD55B46AC
:104750002146179A059800F09FF9054404E030209F
:104760005A46179990476D1C0099481E00900029E1
:10477000F5DC08E0029802995A460078491C02913B
:10478000179990476D1CBAF10001AAF1010AF1DCFA
:1047900065E1000009280100303132333435363705
:1047A000383961626364656600000000303132337D
:1047B000343536373839414243444546000000001D
:1047C00000F058F90544761C307800287FF4ECADF1
:1047D00019B02846BDE8F08F620700D4062709F11A
:1047E000070222F0070CFCE80223E14603F0004830
:1047F0005FEA080C02D00FF2702C0DE05FEA045C57
:1048000002D50FF2682C07E05FEAC47C02D00FF2F9
:10481000602C01E0AFF2700C4FF0FF3823F0004342
:10482000CDF850C065280CD006DC452809D04628B4
:104830001DD047283DD13DE0662818D067287ED19D
:1048400038E00021112F01DB112000E0781CCDE9B8
:10485000000106A90EA8FFF7DDFCDDE90F010E9AA5
:1048600003910021009207F1010A04914DE04FF0FD
:1048700000400097CDE9011006A90EA8FFF7CAFC79
:10488000DDE90F0203920E9B11990022DDF80CA0C6
:104890000093049211B9791C00EB010AB7EB0A00EE
:1048A00004D4C0F1FF3007F1010A0490AAEB07001D
:1048B000019044E0012F00DA01270021112F01DDD2
:1048C000112000E03846CDE9000106A90EA8FFF747
:1048D000A1FCDDE90F010E9A0391002104910092E1
:1048E000BA4621070CD40399514500DA8A46BAF139
:1048F000010F05DD009AAAF10101515C302908D0B1
:10490000B84202DA10F1040F06DA0121CDE90110F4
:1049100015E0AAF10101E9E7002805DC049901444A
:104920000491AAEB000102E0411C514500DD8A46DA
:104930000499401A401C01904FF00040029020075B
:1049400004D40198504501DBCDF8048000208DF897
:104950004F0002980DF14F07B0F1004F25D02B20EA
:104960000E9002984FF0020800280CDA40420290A4
:104970002D200E9007E00A210298FBF745FE30310A
:10498000029007F8011DB8F10001A8F10108F2DC5E
:1049900002980028EFD1791E0E980870307800F048
:1049A000200040F0450007F8020D12A8C01B00F1DE
:1049B00007081498007800B1012000EB0A01019863
:1049C00001EBE07105984144401A401E0590E00358
:1049D00006D45B462146179A059800F05DF8054419
:1049E0001498007818B15A46179990476D1CE00347
:1049F00024D55B462146179A059800F04DF80544EA
:104A00001CE00498002807DBDDE90301884203DD90
:104A10000098405C179901E0179930205A4690475A
:104A2000049805F10105401C04900198401E019076
:104A300004D12E205A46179990476D1CBAF10001F7
:104A4000AAF1010ADDDC05E017F8010B5A461799B7
:104A500090476D1CB8F10001A8F10108F4DC5B4639
:104A60002146179A0598ABE62D0000002B000000A8
:104A7000200000002DE9F041044600251E4617469F
:104A8000880404D405E039462020B0476D1C641E1C
:104A9000F9D52846BDE8F0812DE9F041044600250E
:104AA0001E469046C80301D5302700E02027880421
:104AB00004D505E041463846B0476D1C641EF9D563
:104AC0002846BDE8F0810A68531C0B6010707047DF
:104AD0002DE9F0410D4EDFF838800025002408EB69
:104AE0000527308827F81400C0B2FEF7D7F83088C1
:104AF000000AFEF7D3F8641CA4B2802CF1D36D1C1D
:104B0000ADB2A02DEAD3BDE8F0810000080000207E
:104B1000440000202DE9F041054690460E4610461F
:104B2000FBF7A3FB87B200240AE000BF18F80420BB
:104B30003146284600F008F8ED1D641CADB2A4B261
:104B4000BC42F3D3BDE8F0812DE9F04FCB1D203AF4
:104B500002EBC20297B2174A9946DFF85CB0B2F88E
:104B600000C0B2F802A0DFF854E09BB2002400229B
:104B70003D190BEB85056E680EEB002546FA02F831
:104B80005FEAC87802D025F813A001E025F813C029
:104B90008B4201D14B4600E05B1E521C92B29BB28D
:104BA000082AEBD3401C641CA4B280B2082CDED3CC
:104BB000BDE8F08F08000020E05500084400002008
:104BC00082B0CDE9000121F0004001909DED000B85
:104BD00002B051EC100B704786B0FCF7D1FCFEF729
:104BE00065F9FDF7EDFDFDF76BFDFF48FD49002779
:104BF0000160FE49C0E901174FF48041C0E903712B
:104C000047618761C7610762FCF734FAFDF78EFEE2
:104C1000FDF7A6FEFDF7FCFEFDF72EFFFDF770FF8A
:104C2000FDF7B2FFF348F2494FF4E13480E8920017
:104C30000C25C760C0E904758761C761FDF784FA78
:104C4000EC48ED494030AE0180E89200C760C0E911
:104C50000475C0E90667FDF777FAE648E749803052
:104C600080E89200C760C0E90475C0E90667FDF7F7
:104C70006BFAFDF74FFDFDF777FD322000F05AFB90
:104C8000DF4CE048042184ED030A8183DE4DC90234
:104C900085618182DD4E4910066181810221866035
:104CA000818000F11001056018226846FBF7B9FA0F
:104CB000D44832464438036D816C2846FBF742FFE6
:104CC000FDF7D2FCFFF704FF0521D1A20846FFF74C
:104CD00021FFD1A20F210520FFF71CFFD0A219212F
:104CE0000520FFF717FFD0A223210520FFF712FFB1
:104CF000CFA22D210520FFF70DFFCFA237210520E0
:104D0000FFF708FFCEA241210520FFF703FFCEA247
:104D10004B210520FFF7FEFECDA255210520FFF710
:104D2000F9FECCA205214C20FFF7F4FECBA20F2107
:104D30004C20FFF7EFFECBA219214C20FFF7EAFE33
:104D4000CAA223214C20FFF7E5FECAA22D214C2048
:104D5000FFF7E0FEC9A237214C20FFF7DBFEC9A216
:104D600041214C20FFF7D6FEC8A24B214C20FFF773
:104D7000D1FEC8A255214C20FFF7CCFEC6A2692166
:104D80000520FFF7C7FE98480C21EC30FDF78CF9A1
:104D90004FF4FA60810608649A4E403E06F108001E
:104DA0000190001D06F1100B06F1140A06F1180916
:104DB00006F11C0806F120050090606901280BD15E
:104DC000A069401CA061022806D187480821EC3068
:104DD000FDF78CF9A76167618A4994ED010A4039B2
:104DE000802000F071FA94ED010A311D822000F05C
:104DF0006BFA94ED010A8420019900F065FA94EDB4
:104E0000010A8620009900F05FFA94ED010A5946E4
:104E1000882000F059FA94ED010A51468A2000F0EA
:104E200053FA94ED010A49468C2000F04DFA94EDB6
:104E3000010A41468E2000F047FA94ED000A002056
:104E400006EB8001D1ED000AF4EEC00AF1EE10FA93
:104E500001DDB0EE600A401C0828F1DB84ED000A99
:104E600094ED030A802000F003FA85ED000A94ED2A
:104E7000030A822000F0FCF985ED010A94ED030A93
:104E8000842000F0F5F985ED020A94ED030A8620EE
:104E900000F0EEF985ED030A94ED030A882000F096
:104EA000E7F985ED040A94ED030A8A2000F0E0F9A1
:104EB00085ED050A94ED030A8C2000F0D9F985ED03
:104EC000060A94ED030A8E2000F0D2F985ED070A58
:104ED00094ED020A002000BF05EB8001D1ED000A2D
:104EE000F4EEC00AF1EE10FA01DDB0EE600A401CEB
:104EF0000828F1DB84ED020A3068FBF756FB41EC31
:104F0000100B3F4853EC102B69A11C30FEF706FA3A
:104F10003B4A05211C322320FFF7FCFD7068FBF79C
:104F200044FB41EC100B364853EC102B60A11C30B5
:104F3000FEF7F4F9324A0F211C322320FFF7EAFD75
:104F4000B068FBF732FB41EC100B2D4853EC102BF3
:104F500057A11C30FEF7E2F9294A19211C322320FF
:104F6000FFF7D8FDF068FBF720FB41EC100B24485D
:104F700053EC102B4EA11C30FEF7D0F9204A232110
:104F80001C320846FFF7C6FD3069FBF70EFB41EC0B
:104F9000100B1B4853EC102B45A11C30FEF7BEF93B
:104FA000174A2D211C322320FFF7B4FD7069FBF74F
:104FB000FCFA41EC100B124853EC102B3CA11C30B6
:104FC000FEF7ACF90E4A37211C322320FFF7A2FD71
:104FD000B069FBF7EAFA41EC100B35A153EC102B4A
:104FE000074869E00054004064A10020A086010049
:104FF0000010014050A30020004400400048004041
:105000000C00002050A400200008024000040240D0
:105010005531633D000000005531703D0000000037
:105020005532633D000000005532703D0000000025
:105030005533633D000000005533703D0000000013
:105040005534633D000000005534703D0000000001
:10505000556D3D004931633D000000004931703D10
:10506000000000004932633D000000004932703DFD
:10507000000000004933633D000000004933703DEB
:10508000000000004934633D000000004934703DD9
:1050900000000000496D3D00436F6D6D75746174D3
:1050A0006F7220706974616E6979612056320000F8
:1050B000252E3266000000001C30FEF72FF9694AE9
:1050C00041212320FFF726FDF069FBF76EFA41EC42
:1050D000100B53EC102BAFF228016248FEF71EF9BB
:1050E000604A4B212320FFF715FD2068FBF75DFA8E
:1050F00041EC100B53EC102BAFF24C015948FEF76A
:105100000DF9584A55212320FFF704FD2868FBF7C5
:105110004CFA41EC100B53EC102BAFF26C015148E0
:10512000FEF7FCF84F4A05216920FFF7F3FC686899
:10513000FBF73BFA41EC100B53EC102BAFF2900154
:105140004848FEF7EBF8474A0F216920FFF7E2FCD9
:10515000A868FBF72AFA41EC100B53EC102BAFF2C6
:10516000B0014048FEF7DAF83E4A19216920FFF7FE
:10517000D1FCE868FBF719FA41EC100B53EC102B4B
:10518000AFF2D4013748FEF7C9F8364A2321692027
:10519000FFF7C0FC2869FBF708FA41EC100B53EC51
:1051A000102BAFF2F4012F48FEF7B8F82D4A2D214D
:1051B0006920FFF7AFFC6869FBF7F7F941EC100BCA
:1051C00053EC102BAFF218112648FEF7A7F8254A2A
:1051D00037216920FFF79EFCA869FBF7E6F941EC4F
:1051E000100B53EC102BAFF238111E48FEF796F857
:1051F0001C4A41216920FFF78DFCE869FBF7D5F9CE
:1052000041EC100B53EC102BAFF25C111548FEF77C
:1052100085F8144A4B216920FFF77CFCA068FBF756
:10522000C4F941EC100B53EC102BAFF27C110D487C
:10523000FEF774F80B4A55216920FFF76BFC2069D3
:10524000401C2061FEF74AF840210748FBF702FFA7
:10525000012805D0002220210448FBF700FFACE51F
:105260000122F8E728000020000002400010024060
:1052700030B505462DED028B83B04FF47A740146AC
:10528000B0EE408A01230E4A0E480094FCF7A6F8BF
:10529000022301AA29460B480094FBF7AFFF9DF8B3
:1052A00005009DF80410000200B2084300EE900AC9
:1052B00003B0F8EEE00A80EE880ABDEC028B30BD48
:1052C0000100002064A1002070B50C462DED028B7A
:1052D00082B005464FF47A760146B0EE408A01234B
:1052E000114A12480096FCF779F8022301AA2946D0
:1052F0000E480096FBF782FFBDF904009FED0C1AE3
:1053000000EE900AB8EEE00AC0EE010AB4EE000A20
:1053100020EE800A84ED000A30EE480A84ED010A8E
:1053200002B0BDEC028B70BD0000002064A1002023
:105330000000C842F0B504462DED048B83B0D420A4
:105340008DF804009FED821B9FED830BFEF778FE26
:10535000B0EE408AF0EE608A2046FBF715F953EC78
:10536000182BFBF7A2F8FBF733F900EE100A7C4884
:10537000D0ED010A60EE200A9FED7A1AB7EE009A8E
:1053800002A889EE008AC1EE208ABCEEC80A10EE9F
:10539000104A00EE104AB8EEC00AFDF7FBFFB5EE6A
:1053A000C00AF1EE10FA01D0012000E000204FF415
:1053B0000045AC4201DD012100E0002104EB840244
:1053C000B5EB420F01DD012200E000221140664FE3
:1053D0000842B2EE040A4FF00A061ED1BC422ADA95
:1053E00094FBF6F0B84222DC25E0AC4203DC94FBEF
:1053F000F6F0B84204DDC8EE000AB0EE608A08E0BC
:10540000BC4204DB04EB8400B5EB400F13DD28EE57
:10541000008AFCEEC80A10EE904AAC4205DD04EBAF
:105420008400B5EB400FE0DC05E0BC4203DA94FBFE
:10543000F6F0B842D9DCB3EE090A02A868EE800A99
:1054400089EE200AFCEEC00A10EE904AFDF7A2FF9A
:10545000B5EEC00AF1EE10FA01D0012100E0002102
:10546000AC4201DD012200E0002204EB8400B5EB38
:10547000400F01DD012300E000231A40114212D148
:10548000BC421CDA94FBF6F1B94214DC17E0AC42E2
:1054900009DC94FBF6F1B94205DCBC4209DBB5EB53
:1054A000400F06DC0BE0AC4203DDB5EB400FEEDC59
:1054B00005E0BC4203DA94FBF6F1B942E7DCBCEE4E
:1054C000E80A4FF47A74032310EE100A01AA8DF84B
:1054D0000500000A8DF80600802124480094FBF79F
:1054E0007DFF032301AA822120480094FBF776FF69
:1054F000032301AA84211D480094FBF76FFF0323B7
:1055000001AA862119480094FBF768FF032301AA2A
:10551000882116480094FBF761FF032301AA8A2122
:1055200012480094FBF75AFF032301AA8C210F486D
:105530000094FBF753FF032301AA8E210B4800942C
:10554000FBF74CFF03B0B0EE480ABDEC048BF0BD96
:105550000000000000002E4000000000000000409D
:1055600000000020ACC5A73B0080FFFF64A1002025
:1055700000B52DED048B83B041EC190BFBF778F9E6
:1055800041EC180B18EE100A18EE901A8DED008BF6
:10559000002818BF0120084320F00040C0F17F60C0
:1055A00000F1E040C00F14D019EE101A19EE900A65
:1055B0008DED009B002918BF0121084320F0004019
:1055C000C0F17F6000F1E040C00F04BF0120FEF792
:1055D0001BFE51EC180B03B0BDEC048B00BD0000AA
:1055E00005000000000000000000000000000000B6
:1055F00000000000000000000000000000000000AB
:105600000000000002000000000000005F00000039
:10561000000000000000000000000000000000008A
:105620000000000000000000030000000600000071
:105630000000000006000000000000000000000064
:105640000000000000000000000000000700000053
:105650002000000068000000380000006C0000001E
:10566000380000002C0000000800000000000000CE
:10567000050000004800000054000000FE0000008B
:1056800054000000240000000000000000000000A2
:105690000000000006000000460000002600000098
:1056A000100000000800000064000000620000001C
:1056B00000000000000000000600000034000000B0
:1056C0004A0000004A0000003400000050000000C2
:1056D0004800000000000000000000000100000081
:1056E00007000000000000000000000000000000B3
:1056F00000000000000000000000000000000000AA
:10570000030000003C000000420000008100000097
:105710000000000000000000000000000000000089
:1057200000000000030000008100000042000000B3
:105730003C0000000000000000000000000000002D
:105740000000000000000000050000000A0000004A
:10575000040000001F000000040000000A00000018
:105760000000000000000000000000000500000034
:1057700010000000100000007C000000100000007D
:105780001000000000000000000000000000000009
:105790000200000080000000600000000000000027
:1057A00000000000000000000000000000000000F9
:1057B00000000000030000001000000010000000C6
:1057C00010000000000000000000000000000000C9
:1057D00000000000000000000200000000000000C7
:1057E0006000000000000000000000000000000059
:1057F00000000000000000000000000003000000A6
:10580000C00000003C000000030000000000000099
:105810000000000000000000000000000000000088
:10582000050000003E0000004100000041000000B3
:10583000410000003E0000000000000000000000E9
:105840000000000004000000000000004200000012
:105850007F00000040000000000000000000000089
:1058600000000000000000000500000042000000F1
:1058700061000000510000004900000046000000E7
:105880000000000000000000000000000500000013
:10589000220000004900000049000000490000000B
:1058A00036000000000000000000000000000000C2
:1058B00005000000180000001400000012000000A5
:1058C0007F00000010000000000000000000000049
:1058D0000000000005000000270000004500000057
:1058E00045000000450000003900000000000000F5
:1058F0000000000000000000050000003C00000067
:105900004A0000004900000049000000300000008B
:105910000000000000000000000000000500000082
:1059200001000000710000000900000005000000F7
:105930000300000000000000000000000000000064
:10594000050000003600000049000000490000008A
:1059500049000000360000000000000000000000C8
:1059600000000000050000000600000049000000E3
:1059700049000000290000001E0000000000000097
:105980000000000000000000020000000000000015
:1059900066000000000000000000000000000000A1
:1059A00000000000000000000000000002000000F5
:1059B0008000000066000000000000000000000001
:1059C00000000000000000000000000000000000D7
:1059D0000300000010000000280000004400000048
:1059E00000000000000000000000000000000000B7
:1059F0000000000006000000000000002800000079
:105A000028000000280000002800000028000000F6
:105A1000000000000000000003000000440000003F
:105A2000280000001000000000000000000000003E
:105A30000000000000000000000000000400000062
:105A400001000000510000000900000006000000F5
:105A50000000000000000000000000000000000046
:105A6000070000001C0000002200000049000000A8
:105A7000550000005D000000510000000E00000015
:105A80000000000005000000700000001C00000085
:105A9000130000001C000000700000000000000067
:105AA0000000000000000000050000007F00000072
:105AB00049000000490000004900000036000000D5
:105AC00000000000000000000000000005000000D1
:105AD0003E000000410000004100000041000000C5
